{
  "_format": "hh3-artifact-1",
  "contractName": "ElearningPlatform",
  "sourceName": "contracts/ElearningPlatform.sol",
  "abi": [
    {
      "inputs": [
        {
          "internalType": "address",
          "name": "certificateNFTAddress",
          "type": "address"
        }
      ],
      "stateMutability": "nonpayable",
      "type": "constructor"
    },
    {
      "anonymous": false,
      "inputs": [
        {
          "indexed": true,
          "internalType": "uint256",
          "name": "courseId",
          "type": "uint256"
        },
        {
          "indexed": true,
          "internalType": "address",
          "name": "instructor",
          "type": "address"
        },
        {
          "indexed": false,
          "internalType": "string",
          "name": "title",
          "type": "string"
        },
        {
          "indexed": false,
          "internalType": "uint256",
          "name": "price",
          "type": "uint256"
        },
        {
          "indexed": false,
          "internalType": "string",
          "name": "contentCid",
          "type": "string"
        }
      ],
      "name": "CourseCreated",
      "type": "event"
    },
    {
      "inputs": [],
      "name": "certificateNFT",
      "outputs": [
        {
          "internalType": "contract ICertificateNFT",
          "name": "",
          "type": "address"
        }
      ],
      "stateMutability": "view",
      "type": "function"
    },
    {
      "inputs": [
        {
          "internalType": "uint256",
          "name": "",
          "type": "uint256"
        }
      ],
      "name": "courses",
      "outputs": [
        {
          "internalType": "uint256",
          "name": "id",
          "type": "uint256"
        },
        {
          "internalType": "address",
          "name": "instructor",
          "type": "address"
        },
        {
          "internalType": "uint256",
          "name": "price",
          "type": "uint256"
        },
        {
          "internalType": "string",
          "name": "title",
          "type": "string"
        },
        {
          "internalType": "string",
          "name": "contentCid",
          "type": "string"
        }
      ],
      "stateMutability": "view",
      "type": "function"
    },
    {
      "inputs": [
        {
          "internalType": "string",
          "name": "title",
          "type": "string"
        },
        {
          "internalType": "uint256",
          "name": "price",
          "type": "uint256"
        },
        {
          "internalType": "string",
          "name": "contentCid",
          "type": "string"
        }
      ],
      "name": "createCourse",
      "outputs": [
        {
          "internalType": "uint256",
          "name": "courseId",
          "type": "uint256"
        }
      ],
      "stateMutability": "nonpayable",
      "type": "function"
    },
    {
      "inputs": [],
      "name": "nextCourseId",
      "outputs": [
        {
          "internalType": "uint256",
          "name": "",
          "type": "uint256"
        }
      ],
      "stateMutability": "view",
      "type": "function"
    }
  ],
  "bytecode": "0x608060405260018055348015610013575f80fd5b50604051610854380380610854833981016040819052610032916100b0565b6001600160a01b03811661008c5760405162461bcd60e51b815260206004820152601360248201527f496e76616c6964204e4654206164647265737300000000000000000000000000604482015260640160405180910390fd5b5f80546001600160a01b0319166001600160a01b03929092169190911790556100dd565b5f602082840312156100c0575f80fd5b81516001600160a01b03811681146100d6575f80fd5b9392505050565b61076a806100ea5f395ff3fe608060405234801561000f575f80fd5b506004361061004a575f3560e01c80637d83daf21461004e57806391aec72a1461006a57806396f979d2146100945780639d0475da146100b8575b5f80fd5b61005760015481565b6040519081526020015b60405180910390f35b5f5461007c906001600160a01b031681565b6040516001600160a01b039091168152602001610061565b6100a76100a2366004610407565b6100cb565b604051610061959493929190610461565b6100576100c63660046104f0565b610210565b600260208190525f9182526040909120805460018201549282015460038301805492946001600160a01b031693919261010390610564565b80601f016020809104026020016040519081016040528092919081815260200182805461012f90610564565b801561017a5780601f106101515761010080835404028352916020019161017a565b820191905f5260205f20905b81548152906001019060200180831161015d57829003601f168201915b50505050509080600401805461018f90610564565b80601f01602080910402602001604051908101604052809291908181526020018280546101bb90610564565b80156102065780601f106101dd57610100808354040283529160200191610206565b820191905f5260205f20905b8154815290600101906020018083116101e957829003601f168201915b5050505050905085565b5f8481036102595760405162461bcd60e51b8152602060048201526011602482015270151a5d1b19481a5cc81c995c5d5a5c9959607a1b60448201526064015b60405180910390fd5b5f8290036102985760405162461bcd60e51b815260206004820152600c60248201526b10d251081c995c5d5a5c995960a21b6044820152606401610250565b60018054905f6102a78361059c565b9190505590506040518060a00160405280828152602001336001600160a01b0316815260200185815260200187878080601f0160208091040260200160405190810160405280939291908181526020018383808284375f92019190915250505090825250604080516020601f8701819004810282018101909252858152918101919086908690819084018382808284375f9201829052509390945250508381526002602081815260409283902085518155908501516001820180546001600160a01b0319166001600160a01b0390921691909117905591840151908201556060830151909150600382019061039c9082610620565b50608082015160048201906103b19082610620565b50905050336001600160a01b0316817ed0c2053e9c58e45c2d0ef78a34a697e1cc22adbce3131a81e81f40b0bdae9388888888886040516103f6959493929190610708565b60405180910390a395945050505050565b5f60208284031215610417575f80fd5b5035919050565b5f81518084525f5b8181101561044257602081850181015186830182015201610426565b505f602082860101526020601f19601f83011685010191505092915050565b85815260018060a01b038516602082015283604082015260a060608201525f61048d60a083018561041e565b828103608084015261049f818561041e565b98975050505050505050565b5f8083601f8401126104bb575f80fd5b50813567ffffffffffffffff8111156104d2575f80fd5b6020830191508360208285010111156104e9575f80fd5b9250929050565b5f805f805f60608688031215610504575f80fd5b853567ffffffffffffffff8082111561051b575f80fd5b61052789838a016104ab565b9097509550602088013594506040880135915080821115610546575f80fd5b50610553888289016104ab565b969995985093965092949392505050565b600181811c9082168061057857607f821691505b60208210810361059657634e487b7160e01b5f52602260045260245ffd5b50919050565b5f600182016105b957634e487b7160e01b5f52601160045260245ffd5b5060010190565b634e487b7160e01b5f52604160045260245ffd5b601f82111561061b57805f5260205f20601f840160051c810160208510156105f95750805b601f840160051c820191505b81811015610618575f8155600101610605565b50505b505050565b815167ffffffffffffffff81111561063a5761063a6105c0565b61064e816106488454610564565b846105d4565b602080601f831160018114610681575f841561066a5750858301515b5f19600386901b1c1916600185901b1785556106d8565b5f85815260208120601f198616915b828110156106af57888601518255948401946001909101908401610690565b50858210156106cc57878501515f19600388901b60f8161c191681555b505060018460011b0185555b505050505050565b81835281816020850137505f828201602090810191909152601f909101601f19169091010190565b606081525f61071b6060830187896106e0565b856020840152828103604084015261049f8185876106e056fea2646970667358221220c5ca5158dfcbaee31e238ff352bf13d84365b5dc0f702d3becd8130387d9a67964736f6c63430008180033",
  "linkReferences": {},
  "deployedLinkReferences": {},
  "immutableReferences": {},
  "inputSourceName": "project/contracts/ElearningPlatform.sol",
  "buildInfoId": "solc-0_8_24-7505c30870e2ad5797500023d29f38718758489d"
}