{
  "_format": "hh3-artifact-1",
  "contractName": "ElearningPlatform",
  "sourceName": "contracts/ElearningPlatform.sol",
  "abi": [
    {
      "inputs": [
        {
          "internalType": "address",
          "name": "certificateNFTAddress",
          "type": "address"
        }
      ],
      "stateMutability": "nonpayable",
      "type": "constructor"
    },
    {
      "anonymous": false,
      "inputs": [
        {
          "indexed": true,
          "internalType": "uint256",
          "name": "courseId",
          "type": "uint256"
        },
        {
          "indexed": true,
          "internalType": "address",
          "name": "instructor",
          "type": "address"
        },
        {
          "indexed": false,
          "internalType": "string",
          "name": "title",
          "type": "string"
        },
        {
          "indexed": false,
          "internalType": "uint256",
          "name": "price",
          "type": "uint256"
        },
        {
          "indexed": false,
          "internalType": "string",
          "name": "contentCid",
          "type": "string"
        }
      ],
      "name": "CourseCreated",
      "type": "event"
    },
    {
      "inputs": [],
      "name": "certificateNFT",
      "outputs": [
        {
          "internalType": "contract ICertificateNFT",
          "name": "",
          "type": "address"
        }
      ],
      "stateMutability": "view",
      "type": "function"
    },
    {
      "inputs": [
        {
          "internalType": "uint256",
          "name": "",
          "type": "uint256"
        }
      ],
      "name": "courseIds",
      "outputs": [
        {
          "internalType": "uint256",
          "name": "",
          "type": "uint256"
        }
      ],
      "stateMutability": "view",
      "type": "function"
    },
    {
      "inputs": [
        {
          "internalType": "uint256",
          "name": "",
          "type": "uint256"
        }
      ],
      "name": "courses",
      "outputs": [
        {
          "internalType": "uint256",
          "name": "id",
          "type": "uint256"
        },
        {
          "internalType": "address",
          "name": "instructor",
          "type": "address"
        },
        {
          "internalType": "uint256",
          "name": "price",
          "type": "uint256"
        },
        {
          "internalType": "string",
          "name": "title",
          "type": "string"
        },
        {
          "internalType": "string",
          "name": "contentCid",
          "type": "string"
        }
      ],
      "stateMutability": "view",
      "type": "function"
    },
    {
      "inputs": [
        {
          "internalType": "string",
          "name": "title",
          "type": "string"
        },
        {
          "internalType": "uint256",
          "name": "price",
          "type": "uint256"
        },
        {
          "internalType": "string",
          "name": "contentCid",
          "type": "string"
        }
      ],
      "name": "createCourse",
      "outputs": [
        {
          "internalType": "uint256",
          "name": "courseId",
          "type": "uint256"
        }
      ],
      "stateMutability": "nonpayable",
      "type": "function"
    },
    {
      "inputs": [],
      "name": "getAllCourse",
      "outputs": [
        {
          "components": [
            {
              "internalType": "uint256",
              "name": "id",
              "type": "uint256"
            },
            {
              "internalType": "address",
              "name": "instructor",
              "type": "address"
            },
            {
              "internalType": "uint256",
              "name": "price",
              "type": "uint256"
            },
            {
              "internalType": "string",
              "name": "title",
              "type": "string"
            },
            {
              "internalType": "string",
              "name": "contentCid",
              "type": "string"
            }
          ],
          "internalType": "struct ElearningPlatform.Course[]",
          "name": "",
          "type": "tuple[]"
        }
      ],
      "stateMutability": "view",
      "type": "function"
    },
    {
      "inputs": [],
      "name": "nextCourseId",
      "outputs": [
        {
          "internalType": "uint256",
          "name": "",
          "type": "uint256"
        }
      ],
      "stateMutability": "view",
      "type": "function"
    }
  ],
  "bytecode": "0x608060405260018055348015610013575f80fd5b50604051610bfe380380610bfe833981016040819052610032916100b0565b6001600160a01b03811661008c5760405162461bcd60e51b815260206004820152601360248201527f496e76616c6964204e4654206164647265737300000000000000000000000000604482015260640160405180910390fd5b5f80546001600160a01b0319166001600160a01b03929092169190911790556100dd565b5f602082840312156100c0575f80fd5b81516001600160a01b03811681146100d6575f80fd5b9392505050565b610b14806100ea5f395ff3fe608060405234801561000f575f80fd5b5060043610610060575f3560e01c80630f5fb0a014610064578063494e2371146100825780637d83daf2146100a357806391aec72a146100ac57806396f979d2146100d65780639d0475da146100fa575b5f80fd5b61006c61010d565b6040516100799190610733565b60405180910390f35b6100956100903660046107e6565b610368565b604051908152602001610079565b61009560015481565b5f546100be906001600160a01b031681565b6040516001600160a01b039091168152602001610079565b6100e96100e43660046107e6565b610387565b6040516100799594939291906107fd565b61009561010836600461088c565b6104cc565b6003546060905f9067ffffffffffffffff81111561012d5761012d610900565b60405190808252806020026020018201604052801561019657816020015b6101836040518060a001604052805f81526020015f6001600160a01b031681526020015f815260200160608152602001606081525090565b81526020019060019003908161014b5790505b5090505f5b6003548110156103625760025f600383815481106101bb576101bb610914565b905f5260205f20015481526020019081526020015f206040518060a00160405290815f8201548152602001600182015f9054906101000a90046001600160a01b03166001600160a01b03166001600160a01b031681526020016002820154815260200160038201805461022d90610928565b80601f016020809104026020016040519081016040528092919081815260200182805461025990610928565b80156102a45780601f1061027b576101008083540402835291602001916102a4565b820191905f5260205f20905b81548152906001019060200180831161028757829003601f168201915b505050505081526020016004820180546102bd90610928565b80601f01602080910402602001604051908101604052809291908181526020018280546102e990610928565b80156103345780601f1061030b57610100808354040283529160200191610334565b820191905f5260205f20905b81548152906001019060200180831161031757829003601f168201915b50505050508152505082828151811061034f5761034f610914565b602090810291909101015260010161019b565b50919050565b60038181548110610377575f80fd5b5f91825260209091200154905081565b600260208190525f9182526040909120805460018201549282015460038301805492946001600160a01b03169391926103bf90610928565b80601f01602080910402602001604051908101604052809291908181526020018280546103eb90610928565b80156104365780601f1061040d57610100808354040283529160200191610436565b820191905f5260205f20905b81548152906001019060200180831161041957829003601f168201915b50505050509080600401805461044b90610928565b80601f016020809104026020016040519081016040528092919081815260200182805461047790610928565b80156104c25780601f10610499576101008083540402835291602001916104c2565b820191905f5260205f20905b8154815290600101906020018083116104a557829003601f168201915b5050505050905085565b5f8481036105155760405162461bcd60e51b8152602060048201526011602482015270151a5d1b19481a5cc81c995c5d5a5c9959607a1b60448201526064015b60405180910390fd5b5f8290036105545760405162461bcd60e51b815260206004820152600c60248201526b10d251081c995c5d5a5c995960a21b604482015260640161050c565b60018054905f6105638361095a565b9190505590506040518060a00160405280828152602001336001600160a01b0316815260200185815260200187878080601f0160208091040260200160405190810160405280939291908181526020018383808284375f92019190915250505090825250604080516020601f8701819004810282018101909252858152918101919086908690819084018382808284375f9201829052509390945250508381526002602081815260409283902085518155908501516001820180546001600160a01b0319166001600160a01b0390921691909117905591840151908201556060830151909150600382019061065890826109ca565b506080820151600482019061066d90826109ca565b5050600380546001810182555f919091527fc2575a0e9e593c00f959f8c92f12db2869c3395a3b0502d05e2516446f71f85b0182905550604051339082907ed0c2053e9c58e45c2d0ef78a34a697e1cc22adbce3131a81e81f40b0bdae93906106df908a908a908a908a908a90610ab2565b60405180910390a395945050505050565b5f81518084525f5b81811015610714576020818501810151868301820152016106f8565b505f602082860101526020601f19601f83011685010191505092915050565b5f60208083018184528085518083526040925060408601915060408160051b8701018488015f5b838110156107d857888303603f19018552815180518452878101516001600160a01b031688850152868101518785015260608082015160a082870181905291906107a6838801826106f0565b92505050608080830151925085820381870152506107c481836106f0565b96890196945050509086019060010161075a565b509098975050505050505050565b5f602082840312156107f6575f80fd5b5035919050565b85815260018060a01b038516602082015283604082015260a060608201525f61082960a08301856106f0565b828103608084015261083b81856106f0565b98975050505050505050565b5f8083601f840112610857575f80fd5b50813567ffffffffffffffff81111561086e575f80fd5b602083019150836020828501011115610885575f80fd5b9250929050565b5f805f805f606086880312156108a0575f80fd5b853567ffffffffffffffff808211156108b7575f80fd5b6108c389838a01610847565b90975095506020880135945060408801359150808211156108e2575f80fd5b506108ef88828901610847565b969995985093965092949392505050565b634e487b7160e01b5f52604160045260245ffd5b634e487b7160e01b5f52603260045260245ffd5b600181811c9082168061093c57607f821691505b60208210810361036257634e487b7160e01b5f52602260045260245ffd5b5f6001820161097757634e487b7160e01b5f52601160045260245ffd5b5060010190565b601f8211156109c557805f5260205f20601f840160051c810160208510156109a35750805b601f840160051c820191505b818110156109c2575f81556001016109af565b50505b505050565b815167ffffffffffffffff8111156109e4576109e4610900565b6109f8816109f28454610928565b8461097e565b602080601f831160018114610a2b575f8415610a145750858301515b5f19600386901b1c1916600185901b178555610a82565b5f85815260208120601f198616915b82811015610a5957888601518255948401946001909101908401610a3a565b5085821015610a7657878501515f19600388901b60f8161c191681555b505060018460011b0185555b505050505050565b81835281816020850137505f828201602090810191909152601f909101601f19169091010190565b606081525f610ac5606083018789610a8a565b856020840152828103604084015261083b818587610a8a56fea2646970667358221220c755364794ee456dc647e8775be41e9d869c6586b266520ddce1d7683979368164736f6c63430008180033",
  "linkReferences": {},
  "deployedLinkReferences": {},
  "immutableReferences": {},
  "inputSourceName": "project/contracts/ElearningPlatform.sol",
  "buildInfoId": "solc-0_8_24-121cb0f0e0b01955e676600d39b98f41baf00cf6"
}