{
  "_format": "hh3-artifact-1",
  "contractName": "ElearningPlatform",
  "sourceName": "contracts/ElearningPlatform.sol",
  "abi": [
    {
      "inputs": [
        {
          "internalType": "address",
          "name": "_certificateNFTAddress",
          "type": "address"
        }
      ],
      "stateMutability": "nonpayable",
      "type": "constructor"
    },
    {
      "anonymous": false,
      "inputs": [
        {
          "indexed": true,
          "internalType": "uint256",
          "name": "courseId",
          "type": "uint256"
        },
        {
          "indexed": true,
          "internalType": "address",
          "name": "instructor",
          "type": "address"
        },
        {
          "indexed": false,
          "internalType": "string",
          "name": "title",
          "type": "string"
        },
        {
          "indexed": false,
          "internalType": "uint256",
          "name": "price",
          "type": "uint256"
        },
        {
          "indexed": false,
          "internalType": "string",
          "name": "contentCid",
          "type": "string"
        }
      ],
      "name": "CourseCreated",
      "type": "event"
    },
    {
      "anonymous": false,
      "inputs": [
        {
          "indexed": true,
          "internalType": "address",
          "name": "student",
          "type": "address"
        },
        {
          "indexed": true,
          "internalType": "uint256",
          "name": "courseId",
          "type": "uint256"
        },
        {
          "indexed": false,
          "internalType": "uint256",
          "name": "price",
          "type": "uint256"
        }
      ],
      "name": "CoursePurchased",
      "type": "event"
    },
    {
      "inputs": [],
      "name": "certificateNFT",
      "outputs": [
        {
          "internalType": "contract ICertificateNFT",
          "name": "",
          "type": "address"
        }
      ],
      "stateMutability": "view",
      "type": "function"
    },
    {
      "inputs": [
        {
          "internalType": "uint256",
          "name": "",
          "type": "uint256"
        }
      ],
      "name": "courseIds",
      "outputs": [
        {
          "internalType": "uint256",
          "name": "",
          "type": "uint256"
        }
      ],
      "stateMutability": "view",
      "type": "function"
    },
    {
      "inputs": [
        {
          "internalType": "uint256",
          "name": "",
          "type": "uint256"
        }
      ],
      "name": "courses",
      "outputs": [
        {
          "internalType": "uint256",
          "name": "id",
          "type": "uint256"
        },
        {
          "internalType": "address",
          "name": "instructor",
          "type": "address"
        },
        {
          "internalType": "uint256",
          "name": "price",
          "type": "uint256"
        },
        {
          "internalType": "string",
          "name": "title",
          "type": "string"
        },
        {
          "internalType": "string",
          "name": "contentCid",
          "type": "string"
        }
      ],
      "stateMutability": "view",
      "type": "function"
    },
    {
      "inputs": [
        {
          "internalType": "string",
          "name": "_title",
          "type": "string"
        },
        {
          "internalType": "uint256",
          "name": "_price",
          "type": "uint256"
        },
        {
          "internalType": "string",
          "name": "_contentCid",
          "type": "string"
        }
      ],
      "name": "createCourse",
      "outputs": [
        {
          "internalType": "uint256",
          "name": "courseId",
          "type": "uint256"
        }
      ],
      "stateMutability": "nonpayable",
      "type": "function"
    },
    {
      "inputs": [],
      "name": "getAllCourse",
      "outputs": [
        {
          "components": [
            {
              "internalType": "uint256",
              "name": "id",
              "type": "uint256"
            },
            {
              "internalType": "address",
              "name": "instructor",
              "type": "address"
            },
            {
              "internalType": "uint256",
              "name": "price",
              "type": "uint256"
            },
            {
              "internalType": "string",
              "name": "title",
              "type": "string"
            },
            {
              "internalType": "string",
              "name": "contentCid",
              "type": "string"
            }
          ],
          "internalType": "struct ElearningPlatform.Course[]",
          "name": "",
          "type": "tuple[]"
        }
      ],
      "stateMutability": "view",
      "type": "function"
    },
    {
      "inputs": [
        {
          "internalType": "uint256",
          "name": "courseId",
          "type": "uint256"
        }
      ],
      "name": "getCourseById",
      "outputs": [
        {
          "components": [
            {
              "internalType": "uint256",
              "name": "id",
              "type": "uint256"
            },
            {
              "internalType": "address",
              "name": "instructor",
              "type": "address"
            },
            {
              "internalType": "uint256",
              "name": "price",
              "type": "uint256"
            },
            {
              "internalType": "string",
              "name": "title",
              "type": "string"
            },
            {
              "internalType": "string",
              "name": "contentCid",
              "type": "string"
            }
          ],
          "internalType": "struct ElearningPlatform.Course",
          "name": "",
          "type": "tuple"
        }
      ],
      "stateMutability": "view",
      "type": "function"
    },
    {
      "inputs": [
        {
          "internalType": "uint256",
          "name": "_courseId",
          "type": "uint256"
        }
      ],
      "name": "getCourseContentCid",
      "outputs": [
        {
          "internalType": "string",
          "name": "",
          "type": "string"
        }
      ],
      "stateMutability": "view",
      "type": "function"
    },
    {
      "inputs": [
        {
          "internalType": "address",
          "name": "_student",
          "type": "address"
        },
        {
          "internalType": "uint256",
          "name": "_courseId",
          "type": "uint256"
        }
      ],
      "name": "getPurchasedCourseContentCid",
      "outputs": [
        {
          "internalType": "string",
          "name": "",
          "type": "string"
        }
      ],
      "stateMutability": "view",
      "type": "function"
    },
    {
      "inputs": [
        {
          "internalType": "address",
          "name": "_student",
          "type": "address"
        }
      ],
      "name": "getPurchasedCourses",
      "outputs": [
        {
          "internalType": "uint256[]",
          "name": "",
          "type": "uint256[]"
        }
      ],
      "stateMutability": "view",
      "type": "function"
    },
    {
      "inputs": [
        {
          "internalType": "address",
          "name": "_student",
          "type": "address"
        },
        {
          "internalType": "uint256",
          "name": "_courseId",
          "type": "uint256"
        }
      ],
      "name": "hasPurchasedCourse",
      "outputs": [
        {
          "internalType": "bool",
          "name": "",
          "type": "bool"
        }
      ],
      "stateMutability": "view",
      "type": "function"
    },
    {
      "inputs": [],
      "name": "nextCourseId",
      "outputs": [
        {
          "internalType": "uint256",
          "name": "",
          "type": "uint256"
        }
      ],
      "stateMutability": "view",
      "type": "function"
    },
    {
      "inputs": [
        {
          "internalType": "uint256",
          "name": "_courseId",
          "type": "uint256"
        }
      ],
      "name": "purchaseCourse",
      "outputs": [],
      "stateMutability": "payable",
      "type": "function"
    },
    {
      "inputs": [
        {
          "internalType": "address",
          "name": "",
          "type": "address"
        },
        {
          "internalType": "uint256",
          "name": "",
          "type": "uint256"
        }
      ],
      "name": "purchases",
      "outputs": [
        {
          "internalType": "bool",
          "name": "",
          "type": "bool"
        }
      ],
      "stateMutability": "view",
      "type": "function"
    },
    {
      "inputs": [
        {
          "internalType": "address",
          "name": "",
          "type": "address"
        },
        {
          "internalType": "uint256",
          "name": "",
          "type": "uint256"
        }
      ],
      "name": "studentCourseIndex",
      "outputs": [
        {
          "internalType": "uint256",
          "name": "",
          "type": "uint256"
        }
      ],
      "stateMutability": "view",
      "type": "function"
    },
    {
      "inputs": [
        {
          "internalType": "address",
          "name": "",
          "type": "address"
        },
        {
          "internalType": "uint256",
          "name": "",
          "type": "uint256"
        }
      ],
      "name": "studentCourses",
      "outputs": [
        {
          "internalType": "uint256",
          "name": "",
          "type": "uint256"
        }
      ],
      "stateMutability": "view",
      "type": "function"
    }
  ],
  "bytecode": "0x608060405260018055348015610013575f80fd5b506040516117e23803806117e2833981016040819052610032916100b0565b6001600160a01b03811661008c5760405162461bcd60e51b815260206004820152601360248201527f496e76616c6964204e4654206164647265737300000000000000000000000000604482015260640160405180910390fd5b5f80546001600160a01b0319166001600160a01b03929092169190911790556100dd565b5f602082840312156100c0575f80fd5b81516001600160a01b03811681146100d6575f80fd5b9392505050565b6116f8806100ea5f395ff3fe6080604052600436106100e4575f3560e01c80637f9c45cb11610087578063ccfb517111610057578063ccfb5171146102cf578063cd131938146102ee578063ea5b210f14610303578063fd95cc511461032f575f80fd5b80637f9c45cb1461022b57806391aec72a1461024a57806396f979d2146102805780639d0475da146102b0575f80fd5b806311e8e6fc116100c257806311e8e6fc1461016a578063494e2371146101ae57806352d3f849146101cd5780637d83daf214610216575f80fd5b8063098761fa146100e85780630a5fa7f21461011d5780630f5fb0a014610149575b5f80fd5b3480156100f3575f80fd5b506101076101023660046111de565b61034e565b6040516101149190611238565b60405180910390f35b348015610128575f80fd5b5061013c61013736600461126c565b610447565b6040516101149190611285565b348015610154575f80fd5b5061015d6104af565b6040516101149190611324565b348015610175575f80fd5b506101a0610184366004611386565b600660209081525f928352604080842090915290825290205481565b604051908152602001610114565b3480156101b9575f80fd5b506101a06101c83660046111de565b6106d9565b3480156101d8575f80fd5b506102066101e7366004611386565b600460209081525f928352604080842090915290825290205460ff1681565b6040519015158152602001610114565b348015610221575f80fd5b506101a060015481565b348015610236575f80fd5b50610206610245366004611386565b6106f8565b348015610255575f80fd5b505f54610268906001600160a01b031681565b6040516001600160a01b039091168152602001610114565b34801561028b575f80fd5b5061029f61029a3660046111de565b610725565b6040516101149594939291906113ae565b3480156102bb575f80fd5b506101a06102ca36600461143d565b61086a565b3480156102da575f80fd5b506101076102e9366004611386565b610a9a565b6103016102fc3660046111de565b610ba5565b005b34801561030e575f80fd5b5061032261031d3660046111de565b61100d565b60405161011491906114b1565b34801561033a575f80fd5b506101a0610349366004611386565b61117e565b5f81815260026020526040812054606091036103a95760405162461bcd60e51b815260206004820152601560248201527410dbdd5c9cd948191bd95cc81b9bdd08195e1a5cdd605a1b60448201526064015b60405180910390fd5b5f82815260026020526040902060040180546103c4906114c3565b80601f01602080910402602001604051908101604052809291908181526020018280546103f0906114c3565b801561043b5780601f106104125761010080835404028352916020019161043b565b820191905f5260205f20905b81548152906001019060200180831161041e57829003601f168201915b50505050509050919050565b6001600160a01b0381165f9081526005602090815260409182902080548351818402810184019094528084526060939283018282801561043b57602002820191905f5260205f20905b8154815260200190600101908083116104905750505050509050919050565b6003546060905f8167ffffffffffffffff8111156104cf576104cf6114fb565b60405190808252806020026020018201604052801561050857816020015b6104f56111a9565b8152602001906001900390816104ed5790505b5090505f5b828110156106d25760025f6003838154811061052b5761052b61150f565b905f5260205f20015481526020019081526020015f206040518060a00160405290815f8201548152602001600182015f9054906101000a90046001600160a01b03166001600160a01b03166001600160a01b031681526020016002820154815260200160038201805461059d906114c3565b80601f01602080910402602001604051908101604052809291908181526020018280546105c9906114c3565b80156106145780601f106105eb57610100808354040283529160200191610614565b820191905f5260205f20905b8154815290600101906020018083116105f757829003601f168201915b5050505050815260200160048201805461062d906114c3565b80601f0160208091040260200160405190810160405280929190818152602001828054610659906114c3565b80156106a45780601f1061067b576101008083540402835291602001916106a4565b820191905f5260205f20905b81548152906001019060200180831161068757829003601f168201915b5050505050815250508282815181106106bf576106bf61150f565b602090810291909101015260010161050d565b5092915050565b600381815481106106e8575f80fd5b5f91825260209091200154905081565b6001600160a01b0382165f90815260046020908152604080832084845290915290205460ff165b92915050565b600260208190525f9182526040909120805460018201549282015460038301805492946001600160a01b031693919261075d906114c3565b80601f0160208091040260200160405190810160405280929190818152602001828054610789906114c3565b80156107d45780601f106107ab576101008083540402835291602001916107d4565b820191905f5260205f20905b8154815290600101906020018083116107b757829003601f168201915b5050505050908060040180546107e9906114c3565b80601f0160208091040260200160405190810160405280929190818152602001828054610815906114c3565b80156108605780601f1061083757610100808354040283529160200191610860565b820191905f5260205f20905b81548152906001019060200180831161084357829003601f168201915b5050505050905085565b5f8481036108ae5760405162461bcd60e51b8152602060048201526011602482015270151a5d1b19481a5cc81c995c5d5a5c9959607a1b60448201526064016103a0565b5f8290036108fe5760405162461bcd60e51b815260206004820152601760248201527f436f6e74656e742043494420697320726571756972656400000000000000000060448201526064016103a0565b60018054905f61090d83611537565b9190505590506040518060a00160405280828152602001336001600160a01b0316815260200185815260200187878080601f0160208091040260200160405190810160405280939291908181526020018383808284375f92019190915250505090825250604080516020601f8701819004810282018101909252858152918101919086908690819084018382808284375f9201829052509390945250508381526002602081815260409283902085518155908501516001820180546001600160a01b0319166001600160a01b03909216919091179055918401519082015560608301519091506003820190610a02908261159b565b5060808201516004820190610a17908261159b565b5050600380546001810182555f919091527fc2575a0e9e593c00f959f8c92f12db2869c3395a3b0502d05e2516446f71f85b0182905550604051339082907ed0c2053e9c58e45c2d0ef78a34a697e1cc22adbce3131a81e81f40b0bdae9390610a89908a908a908a908a908a90611683565b60405180910390a395945050505050565b6001600160a01b0382165f90815260046020908152604080832084845290915290205460609060ff16610b065760405162461bcd60e51b815260206004820152601460248201527310dbdd5c9cd9481b9bdd081c1d5c98da185cd95960621b60448201526064016103a0565b5f8281526002602052604090206004018054610b21906114c3565b80601f0160208091040260200160405190810160405280929190818152602001828054610b4d906114c3565b8015610b985780601f10610b6f57610100808354040283529160200191610b98565b820191905f5260205f20905b815481529060010190602001808311610b7b57829003601f168201915b5050505050905092915050565b5f818152600260208181526040808420815160a0810183528154815260018201546001600160a01b0316938101939093529283015490820152600382018054919291606084019190610bf6906114c3565b80601f0160208091040260200160405190810160405280929190818152602001828054610c22906114c3565b8015610c6d5780601f10610c4457610100808354040283529160200191610c6d565b820191905f5260205f20905b815481529060010190602001808311610c5057829003601f168201915b50505050508152602001600482018054610c86906114c3565b80601f0160208091040260200160405190810160405280929190818152602001828054610cb2906114c3565b8015610cfd5780601f10610cd457610100808354040283529160200191610cfd565b820191905f5260205f20905b815481529060010190602001808311610ce057829003601f168201915b5050505050815250509050805f01515f03610d525760405162461bcd60e51b815260206004820152601560248201527410dbdd5c9cd948191bd95cc81b9bdd08195e1a5cdd605a1b60448201526064016103a0565b335f90815260046020908152604080832085845290915290205460ff1615610dbc5760405162461bcd60e51b815260206004820152601860248201527f436f7572736520616c726561647920707572636861736564000000000000000060448201526064016103a0565b8060400151341015610e075760405162461bcd60e51b8152602060048201526014602482015273125b9cdd59999a58da595b9d081c185e5b595b9d60621b60448201526064016103a0565b335f8181526004602090815260408083208684528252808320805460ff1916600190811790915593835260058083528184208054600685528386208987528552838620819055918452948101855593835281832090930185905583015183830151925191926001600160a01b03909116918381818185875af1925050503d805f8114610eae576040519150601f19603f3d011682016040523d82523d5f602084013e610eb3565b606091505b5050905080610f105760405162461bcd60e51b8152602060048201526024808201527f4661696c656420746f2073656e64207061796d656e7420746f20696e7374727560448201526331ba37b960e11b60648201526084016103a0565b8160400151341115610fc05760408201515f903390610f2f90346116af565b6040515f81818185875af1925050503d805f8114610f68576040519150601f19603f3d011682016040523d82523d5f602084013e610f6d565b606091505b5050905080610fbe5760405162461bcd60e51b815260206004820152601f60248201527f4661696c656420746f20726566756e6420657863657373207061796d656e740060448201526064016103a0565b505b82336001600160a01b03167f4b71ef6d807a9a201a6f28d104a403722af74f85b8f2042a8d152bd2a78f5586846040015160405161100091815260200190565b60405180910390a3505050565b6110156111a9565b5f82815260026020818152604092839020835160a0810185528154815260018201546001600160a01b0316928101929092529182015492810192909252600381018054606084019190611067906114c3565b80601f0160208091040260200160405190810160405280929190818152602001828054611093906114c3565b80156110de5780601f106110b5576101008083540402835291602001916110de565b820191905f5260205f20905b8154815290600101906020018083116110c157829003601f168201915b505050505081526020016004820180546110f7906114c3565b80601f0160208091040260200160405190810160405280929190818152602001828054611123906114c3565b801561116e5780601f106111455761010080835404028352916020019161116e565b820191905f5260205f20905b81548152906001019060200180831161115157829003601f168201915b5050505050815250509050919050565b6005602052815f5260405f208181548110611197575f80fd5b905f5260205f20015f91509150505481565b6040518060a001604052805f81526020015f6001600160a01b031681526020015f815260200160608152602001606081525090565b5f602082840312156111ee575f80fd5b5035919050565b5f81518084525f5b81811015611219576020818501810151868301820152016111fd565b505f602082860101526020601f19601f83011685010191505092915050565b602081525f61124a60208301846111f5565b9392505050565b80356001600160a01b0381168114611267575f80fd5b919050565b5f6020828403121561127c575f80fd5b61124a82611251565b602080825282518282018190525f9190848201906040850190845b818110156112bc578351835292840192918401916001016112a0565b50909695505050505050565b8051825260018060a01b036020820151166020830152604081015160408301525f606082015160a0606085015261130260a08501826111f5565b90506080830151848203608086015261131b82826111f5565b95945050505050565b5f60208083016020845280855180835260408601915060408160051b8701019250602087015f5b8281101561137957603f198886030184526113678583516112c8565b9450928501929085019060010161134b565b5092979650505050505050565b5f8060408385031215611397575f80fd5b6113a083611251565b946020939093013593505050565b85815260018060a01b038516602082015283604082015260a060608201525f6113da60a08301856111f5565b82810360808401526113ec81856111f5565b98975050505050505050565b5f8083601f840112611408575f80fd5b50813567ffffffffffffffff81111561141f575f80fd5b602083019150836020828501011115611436575f80fd5b9250929050565b5f805f805f60608688031215611451575f80fd5b853567ffffffffffffffff80821115611468575f80fd5b61147489838a016113f8565b9097509550602088013594506040880135915080821115611493575f80fd5b506114a0888289016113f8565b969995985093965092949392505050565b602081525f61124a60208301846112c8565b600181811c908216806114d757607f821691505b6020821081036114f557634e487b7160e01b5f52602260045260245ffd5b50919050565b634e487b7160e01b5f52604160045260245ffd5b634e487b7160e01b5f52603260045260245ffd5b634e487b7160e01b5f52601160045260245ffd5b5f6001820161154857611548611523565b5060010190565b601f82111561159657805f5260205f20601f840160051c810160208510156115745750805b601f840160051c820191505b81811015611593575f8155600101611580565b50505b505050565b815167ffffffffffffffff8111156115b5576115b56114fb565b6115c9816115c384546114c3565b8461154f565b602080601f8311600181146115fc575f84156115e55750858301515b5f19600386901b1c1916600185901b178555611653565b5f85815260208120601f198616915b8281101561162a5788860151825594840194600190910190840161160b565b508582101561164757878501515f19600388901b60f8161c191681555b505060018460011b0185555b505050505050565b81835281816020850137505f828201602090810191909152601f909101601f19169091010190565b606081525f61169660608301878961165b565b85602084015282810360408401526113ec81858761165b565b8181038181111561071f5761071f61152356fea2646970667358221220fd3817218bb1437d2b10e9ab8f445ed66175b57c8bd18a1224e9f784b7f6727664736f6c63430008180033",
  "linkReferences": {},
  "deployedLinkReferences": {},
  "immutableReferences": {},
  "inputSourceName": "project/contracts/ElearningPlatform.sol",
  "buildInfoId": "solc-0_8_24-acbfc78ce6004ac6fe6c8053a6b892ea6d23e065"
}