{
  "_format": "hh3-artifact-1",
  "contractName": "ElearningPlatform",
  "sourceName": "contracts/ElearningPlatform.sol",
  "abi": [
    {
      "inputs": [
        {
          "internalType": "address",
          "name": "_certificateNFTAddress",
          "type": "address"
        }
      ],
      "stateMutability": "nonpayable",
      "type": "constructor"
    },
    {
      "anonymous": false,
      "inputs": [
        {
          "indexed": true,
          "internalType": "uint256",
          "name": "courseId",
          "type": "uint256"
        },
        {
          "indexed": true,
          "internalType": "address",
          "name": "instructor",
          "type": "address"
        },
        {
          "indexed": false,
          "internalType": "string",
          "name": "title",
          "type": "string"
        },
        {
          "indexed": false,
          "internalType": "uint256",
          "name": "price",
          "type": "uint256"
        },
        {
          "indexed": false,
          "internalType": "string",
          "name": "contentCid",
          "type": "string"
        }
      ],
      "name": "CourseCreated",
      "type": "event"
    },
    {
      "anonymous": false,
      "inputs": [
        {
          "indexed": true,
          "internalType": "address",
          "name": "student",
          "type": "address"
        },
        {
          "indexed": true,
          "internalType": "uint256",
          "name": "courseId",
          "type": "uint256"
        },
        {
          "indexed": false,
          "internalType": "uint256",
          "name": "price",
          "type": "uint256"
        }
      ],
      "name": "CoursePurchased",
      "type": "event"
    },
    {
      "inputs": [],
      "name": "certificateNFT",
      "outputs": [
        {
          "internalType": "contract ICertificateNFT",
          "name": "",
          "type": "address"
        }
      ],
      "stateMutability": "view",
      "type": "function"
    },
    {
      "inputs": [
        {
          "internalType": "uint256",
          "name": "",
          "type": "uint256"
        }
      ],
      "name": "courseIds",
      "outputs": [
        {
          "internalType": "uint256",
          "name": "",
          "type": "uint256"
        }
      ],
      "stateMutability": "view",
      "type": "function"
    },
    {
      "inputs": [
        {
          "internalType": "uint256",
          "name": "",
          "type": "uint256"
        }
      ],
      "name": "courses",
      "outputs": [
        {
          "internalType": "uint256",
          "name": "id",
          "type": "uint256"
        },
        {
          "internalType": "address",
          "name": "instructor",
          "type": "address"
        },
        {
          "internalType": "uint256",
          "name": "price",
          "type": "uint256"
        },
        {
          "internalType": "string",
          "name": "title",
          "type": "string"
        },
        {
          "internalType": "string",
          "name": "contentCid",
          "type": "string"
        }
      ],
      "stateMutability": "view",
      "type": "function"
    },
    {
      "inputs": [
        {
          "internalType": "string",
          "name": "_title",
          "type": "string"
        },
        {
          "internalType": "uint256",
          "name": "_price",
          "type": "uint256"
        },
        {
          "internalType": "string",
          "name": "_contentCid",
          "type": "string"
        }
      ],
      "name": "createCourse",
      "outputs": [
        {
          "internalType": "uint256",
          "name": "courseId",
          "type": "uint256"
        }
      ],
      "stateMutability": "nonpayable",
      "type": "function"
    },
    {
      "inputs": [],
      "name": "getAllCourse",
      "outputs": [
        {
          "components": [
            {
              "internalType": "uint256",
              "name": "id",
              "type": "uint256"
            },
            {
              "internalType": "address",
              "name": "instructor",
              "type": "address"
            },
            {
              "internalType": "uint256",
              "name": "price",
              "type": "uint256"
            },
            {
              "internalType": "string",
              "name": "title",
              "type": "string"
            },
            {
              "internalType": "string",
              "name": "contentCid",
              "type": "string"
            }
          ],
          "internalType": "struct ElearningPlatform.Course[]",
          "name": "",
          "type": "tuple[]"
        }
      ],
      "stateMutability": "view",
      "type": "function"
    },
    {
      "inputs": [
        {
          "internalType": "uint256",
          "name": "_courseId",
          "type": "uint256"
        }
      ],
      "name": "getCourseContentCid",
      "outputs": [
        {
          "internalType": "string",
          "name": "",
          "type": "string"
        }
      ],
      "stateMutability": "view",
      "type": "function"
    },
    {
      "inputs": [
        {
          "internalType": "address",
          "name": "_student",
          "type": "address"
        },
        {
          "internalType": "uint256",
          "name": "_courseId",
          "type": "uint256"
        }
      ],
      "name": "getPurchasedCourseContentCid",
      "outputs": [
        {
          "internalType": "string",
          "name": "",
          "type": "string"
        }
      ],
      "stateMutability": "view",
      "type": "function"
    },
    {
      "inputs": [
        {
          "internalType": "address",
          "name": "_student",
          "type": "address"
        }
      ],
      "name": "getPurchasedCourses",
      "outputs": [
        {
          "internalType": "uint256[]",
          "name": "",
          "type": "uint256[]"
        }
      ],
      "stateMutability": "view",
      "type": "function"
    },
    {
      "inputs": [
        {
          "internalType": "address",
          "name": "_student",
          "type": "address"
        },
        {
          "internalType": "uint256",
          "name": "_courseId",
          "type": "uint256"
        }
      ],
      "name": "hasPurchasedCourse",
      "outputs": [
        {
          "internalType": "bool",
          "name": "",
          "type": "bool"
        }
      ],
      "stateMutability": "view",
      "type": "function"
    },
    {
      "inputs": [],
      "name": "nextCourseId",
      "outputs": [
        {
          "internalType": "uint256",
          "name": "",
          "type": "uint256"
        }
      ],
      "stateMutability": "view",
      "type": "function"
    },
    {
      "inputs": [
        {
          "internalType": "uint256",
          "name": "_courseId",
          "type": "uint256"
        }
      ],
      "name": "purchaseCourse",
      "outputs": [],
      "stateMutability": "payable",
      "type": "function"
    },
    {
      "inputs": [
        {
          "internalType": "address",
          "name": "",
          "type": "address"
        },
        {
          "internalType": "uint256",
          "name": "",
          "type": "uint256"
        }
      ],
      "name": "purchases",
      "outputs": [
        {
          "internalType": "bool",
          "name": "",
          "type": "bool"
        }
      ],
      "stateMutability": "view",
      "type": "function"
    },
    {
      "inputs": [
        {
          "internalType": "address",
          "name": "",
          "type": "address"
        },
        {
          "internalType": "uint256",
          "name": "",
          "type": "uint256"
        }
      ],
      "name": "studentCourseIndex",
      "outputs": [
        {
          "internalType": "uint256",
          "name": "",
          "type": "uint256"
        }
      ],
      "stateMutability": "view",
      "type": "function"
    },
    {
      "inputs": [
        {
          "internalType": "address",
          "name": "",
          "type": "address"
        },
        {
          "internalType": "uint256",
          "name": "",
          "type": "uint256"
        }
      ],
      "name": "studentCourses",
      "outputs": [
        {
          "internalType": "uint256",
          "name": "",
          "type": "uint256"
        }
      ],
      "stateMutability": "view",
      "type": "function"
    }
  ],
  "bytecode": "0x608060405260018055348015610013575f80fd5b506040516115e63803806115e6833981016040819052610032916100b0565b6001600160a01b03811661008c5760405162461bcd60e51b815260206004820152601360248201527f496e76616c6964204e4654206164647265737300000000000000000000000000604482015260640160405180910390fd5b5f80546001600160a01b0319166001600160a01b03929092169190911790556100dd565b5f602082840312156100c0575f80fd5b81516001600160a01b03811681146100d6575f80fd5b9392505050565b6114fc806100ea5f395ff3fe6080604052600436106100d9575f3560e01c80637f9c45cb1161007c5780639d0475da116100575780639d0475da146102a5578063ccfb5171146102c4578063cd131938146102e3578063fd95cc51146102f8575f80fd5b80637f9c45cb1461022057806391aec72a1461023f57806396f979d214610275575f80fd5b806311e8e6fc116100b757806311e8e6fc1461015f578063494e2371146101a357806352d3f849146101c25780637d83daf21461020b575f80fd5b8063098761fa146100dd5780630a5fa7f2146101125780630f5fb0a01461013e575b5f80fd5b3480156100e8575f80fd5b506100fc6100f7366004611005565b610317565b604051610109919061105f565b60405180910390f35b34801561011d575f80fd5b5061013161012c366004611093565b610410565b60405161010991906110ac565b348015610149575f80fd5b50610152610478565b60405161010991906110ef565b34801561016a575f80fd5b506101956101793660046111a2565b600560209081525f928352604080842090915290825290205481565b604051908152602001610109565b3480156101ae575f80fd5b506101956101bd366004611005565b6106d3565b3480156101cd575f80fd5b506101fb6101dc3660046111a2565b600360209081525f928352604080842090915290825290205460ff1681565b6040519015158152602001610109565b348015610216575f80fd5b5061019560015481565b34801561022b575f80fd5b506101fb61023a3660046111a2565b6106f2565b34801561024a575f80fd5b505f5461025d906001600160a01b031681565b6040516001600160a01b039091168152602001610109565b348015610280575f80fd5b5061029461028f366004611005565b61071f565b6040516101099594939291906111ca565b3480156102b0575f80fd5b506101956102bf366004611259565b610864565b3480156102cf575f80fd5b506100fc6102de3660046111a2565b610a67565b6102f66102f1366004611005565b610b72565b005b348015610303575f80fd5b506101956103123660046111a2565b610fda565b5f81815260026020526040812054606091036103725760405162461bcd60e51b815260206004820152601560248201527410dbdd5c9cd948191bd95cc81b9bdd08195e1a5cdd605a1b60448201526064015b60405180910390fd5b5f828152600260205260409020600401805461038d906112cd565b80601f01602080910402602001604051908101604052809291908181526020018280546103b9906112cd565b80156104045780601f106103db57610100808354040283529160200191610404565b820191905f5260205f20905b8154815290600101906020018083116103e757829003601f168201915b50505050509050919050565b6001600160a01b0381165f9081526004602090815260409182902080548351818402810184019094528084526060939283018282801561040457602002820191905f5260205f20905b8154815260200190600101908083116104595750505050509050919050565b6006546060905f9067ffffffffffffffff811115610498576104986112ff565b60405190808252806020026020018201604052801561050157816020015b6104ee6040518060a001604052805f81526020015f6001600160a01b031681526020015f815260200160608152602001606081525090565b8152602001906001900390816104b65790505b5090505f5b6006548110156106cd5760025f6006838154811061052657610526611313565b905f5260205f20015481526020019081526020015f206040518060a00160405290815f8201548152602001600182015f9054906101000a90046001600160a01b03166001600160a01b03166001600160a01b0316815260200160028201548152602001600382018054610598906112cd565b80601f01602080910402602001604051908101604052809291908181526020018280546105c4906112cd565b801561060f5780601f106105e65761010080835404028352916020019161060f565b820191905f5260205f20905b8154815290600101906020018083116105f257829003601f168201915b50505050508152602001600482018054610628906112cd565b80601f0160208091040260200160405190810160405280929190818152602001828054610654906112cd565b801561069f5780601f106106765761010080835404028352916020019161069f565b820191905f5260205f20905b81548152906001019060200180831161068257829003601f168201915b5050505050815250508282815181106106ba576106ba611313565b6020908102919091010152600101610506565b50919050565b600681815481106106e2575f80fd5b5f91825260209091200154905081565b6001600160a01b0382165f90815260036020908152604080832084845290915290205460ff165b92915050565b600260208190525f9182526040909120805460018201549282015460038301805492946001600160a01b0316939192610757906112cd565b80601f0160208091040260200160405190810160405280929190818152602001828054610783906112cd565b80156107ce5780601f106107a5576101008083540402835291602001916107ce565b820191905f5260205f20905b8154815290600101906020018083116107b157829003601f168201915b5050505050908060040180546107e3906112cd565b80601f016020809104026020016040519081016040528092919081815260200182805461080f906112cd565b801561085a5780601f106108315761010080835404028352916020019161085a565b820191905f5260205f20905b81548152906001019060200180831161083d57829003601f168201915b5050505050905085565b5f8481036108a85760405162461bcd60e51b8152602060048201526011602482015270151a5d1b19481a5cc81c995c5d5a5c9959607a1b6044820152606401610369565b5f8290036108f85760405162461bcd60e51b815260206004820152601760248201527f436f6e74656e74204349442069732072657175697265640000000000000000006044820152606401610369565b60018054905f6109078361133b565b9190505590506040518060a00160405280828152602001336001600160a01b0316815260200185815260200187878080601f0160208091040260200160405190810160405280939291908181526020018383808284375f92019190915250505090825250604080516020601f8701819004810282018101909252858152918101919086908690819084018382808284375f9201829052509390945250508381526002602081815260409283902085518155908501516001820180546001600160a01b0319166001600160a01b039092169190911790559184015190820155606083015190915060038201906109fc908261139f565b5060808201516004820190610a11908261139f565b50905050336001600160a01b0316817ed0c2053e9c58e45c2d0ef78a34a697e1cc22adbce3131a81e81f40b0bdae938888888888604051610a56959493929190611487565b60405180910390a395945050505050565b6001600160a01b0382165f90815260036020908152604080832084845290915290205460609060ff16610ad35760405162461bcd60e51b815260206004820152601460248201527310dbdd5c9cd9481b9bdd081c1d5c98da185cd95960621b6044820152606401610369565b5f8281526002602052604090206004018054610aee906112cd565b80601f0160208091040260200160405190810160405280929190818152602001828054610b1a906112cd565b8015610b655780601f10610b3c57610100808354040283529160200191610b65565b820191905f5260205f20905b815481529060010190602001808311610b4857829003601f168201915b5050505050905092915050565b5f818152600260208181526040808420815160a0810183528154815260018201546001600160a01b0316938101939093529283015490820152600382018054919291606084019190610bc3906112cd565b80601f0160208091040260200160405190810160405280929190818152602001828054610bef906112cd565b8015610c3a5780601f10610c1157610100808354040283529160200191610c3a565b820191905f5260205f20905b815481529060010190602001808311610c1d57829003601f168201915b50505050508152602001600482018054610c53906112cd565b80601f0160208091040260200160405190810160405280929190818152602001828054610c7f906112cd565b8015610cca5780601f10610ca157610100808354040283529160200191610cca565b820191905f5260205f20905b815481529060010190602001808311610cad57829003601f168201915b5050505050815250509050805f01515f03610d1f5760405162461bcd60e51b815260206004820152601560248201527410dbdd5c9cd948191bd95cc81b9bdd08195e1a5cdd605a1b6044820152606401610369565b335f90815260036020908152604080832085845290915290205460ff1615610d895760405162461bcd60e51b815260206004820152601860248201527f436f7572736520616c72656164792070757263686173656400000000000000006044820152606401610369565b8060400151341015610dd45760405162461bcd60e51b8152602060048201526014602482015273125b9cdd59999a58da595b9d081c185e5b595b9d60621b6044820152606401610369565b335f8181526003602090815260408083208684528252808320805460ff1916600190811790915593835260048083528184208054600585528386208987528552838620819055918452948101855593835281832090930185905583015183830151925191926001600160a01b03909116918381818185875af1925050503d805f8114610e7b576040519150601f19603f3d011682016040523d82523d5f602084013e610e80565b606091505b5050905080610edd5760405162461bcd60e51b8152602060048201526024808201527f4661696c656420746f2073656e64207061796d656e7420746f20696e7374727560448201526331ba37b960e11b6064820152608401610369565b8160400151341115610f8d5760408201515f903390610efc90346114b3565b6040515f81818185875af1925050503d805f8114610f35576040519150601f19603f3d011682016040523d82523d5f602084013e610f3a565b606091505b5050905080610f8b5760405162461bcd60e51b815260206004820152601f60248201527f4661696c656420746f20726566756e6420657863657373207061796d656e74006044820152606401610369565b505b82336001600160a01b03167f4b71ef6d807a9a201a6f28d104a403722af74f85b8f2042a8d152bd2a78f55868460400151604051610fcd91815260200190565b60405180910390a3505050565b6004602052815f5260405f208181548110610ff3575f80fd5b905f5260205f20015f91509150505481565b5f60208284031215611015575f80fd5b5035919050565b5f81518084525f5b8181101561104057602081850181015186830182015201611024565b505f602082860101526020601f19601f83011685010191505092915050565b602081525f611071602083018461101c565b9392505050565b80356001600160a01b038116811461108e575f80fd5b919050565b5f602082840312156110a3575f80fd5b61107182611078565b602080825282518282018190525f9190848201906040850190845b818110156110e3578351835292840192918401916001016110c7565b50909695505050505050565b5f60208083018184528085518083526040925060408601915060408160051b8701018488015f5b8381101561119457888303603f19018552815180518452878101516001600160a01b031688850152868101518785015260608082015160a082870181905291906111628388018261101c565b9250505060808083015192508582038187015250611180818361101c565b968901969450505090860190600101611116565b509098975050505050505050565b5f80604083850312156111b3575f80fd5b6111bc83611078565b946020939093013593505050565b85815260018060a01b038516602082015283604082015260a060608201525f6111f660a083018561101c565b8281036080840152611208818561101c565b98975050505050505050565b5f8083601f840112611224575f80fd5b50813567ffffffffffffffff81111561123b575f80fd5b602083019150836020828501011115611252575f80fd5b9250929050565b5f805f805f6060868803121561126d575f80fd5b853567ffffffffffffffff80821115611284575f80fd5b61129089838a01611214565b90975095506020880135945060408801359150808211156112af575f80fd5b506112bc88828901611214565b969995985093965092949392505050565b600181811c908216806112e157607f821691505b6020821081036106cd57634e487b7160e01b5f52602260045260245ffd5b634e487b7160e01b5f52604160045260245ffd5b634e487b7160e01b5f52603260045260245ffd5b634e487b7160e01b5f52601160045260245ffd5b5f6001820161134c5761134c611327565b5060010190565b601f82111561139a57805f5260205f20601f840160051c810160208510156113785750805b601f840160051c820191505b81811015611397575f8155600101611384565b50505b505050565b815167ffffffffffffffff8111156113b9576113b96112ff565b6113cd816113c784546112cd565b84611353565b602080601f831160018114611400575f84156113e95750858301515b5f19600386901b1c1916600185901b178555611457565b5f85815260208120601f198616915b8281101561142e5788860151825594840194600190910190840161140f565b508582101561144b57878501515f19600388901b60f8161c191681555b505060018460011b0185555b505050505050565b81835281816020850137505f828201602090810191909152601f909101601f19169091010190565b606081525f61149a60608301878961145f565b856020840152828103604084015261120881858761145f565b818103818111156107195761071961132756fea264697066735822122094e5e4140707f3ad8560b71b2fa439e915e7ceb4cdc584e8e69a0f8de60574f564736f6c63430008180033",
  "linkReferences": {},
  "deployedLinkReferences": {},
  "immutableReferences": {},
  "inputSourceName": "project/contracts/ElearningPlatform.sol",
  "buildInfoId": "solc-0_8_24-6581c708ad045bdc1dcda8044e2d20ece7c2cb05"
}