{
  "_format": "hh3-artifact-1",
  "contractName": "ElearningPlatform",
  "sourceName": "contracts/ElearningPlatform.sol",
  "abi": [
    {
      "inputs": [
        {
          "internalType": "address",
          "name": "_certificateNFTAddress",
          "type": "address"
        }
      ],
      "stateMutability": "nonpayable",
      "type": "constructor"
    },
    {
      "anonymous": false,
      "inputs": [
        {
          "indexed": true,
          "internalType": "uint256",
          "name": "courseId",
          "type": "uint256"
        },
        {
          "indexed": true,
          "internalType": "address",
          "name": "instructor",
          "type": "address"
        },
        {
          "indexed": false,
          "internalType": "string",
          "name": "title",
          "type": "string"
        },
        {
          "indexed": false,
          "internalType": "uint256",
          "name": "price",
          "type": "uint256"
        },
        {
          "indexed": false,
          "internalType": "string",
          "name": "contentCid",
          "type": "string"
        }
      ],
      "name": "CourseCreated",
      "type": "event"
    },
    {
      "anonymous": false,
      "inputs": [
        {
          "indexed": true,
          "internalType": "address",
          "name": "student",
          "type": "address"
        },
        {
          "indexed": true,
          "internalType": "uint256",
          "name": "courseId",
          "type": "uint256"
        },
        {
          "indexed": false,
          "internalType": "uint256",
          "name": "price",
          "type": "uint256"
        }
      ],
      "name": "CoursePurchased",
      "type": "event"
    },
    {
      "inputs": [],
      "name": "certificateNFT",
      "outputs": [
        {
          "internalType": "contract ICertificateNFT",
          "name": "",
          "type": "address"
        }
      ],
      "stateMutability": "view",
      "type": "function"
    },
    {
      "inputs": [
        {
          "internalType": "uint256",
          "name": "",
          "type": "uint256"
        }
      ],
      "name": "courseIds",
      "outputs": [
        {
          "internalType": "uint256",
          "name": "",
          "type": "uint256"
        }
      ],
      "stateMutability": "view",
      "type": "function"
    },
    {
      "inputs": [
        {
          "internalType": "uint256",
          "name": "",
          "type": "uint256"
        }
      ],
      "name": "courses",
      "outputs": [
        {
          "internalType": "uint256",
          "name": "id",
          "type": "uint256"
        },
        {
          "internalType": "address",
          "name": "instructor",
          "type": "address"
        },
        {
          "internalType": "uint256",
          "name": "price",
          "type": "uint256"
        },
        {
          "internalType": "string",
          "name": "title",
          "type": "string"
        },
        {
          "internalType": "string",
          "name": "contentCid",
          "type": "string"
        }
      ],
      "stateMutability": "view",
      "type": "function"
    },
    {
      "inputs": [
        {
          "internalType": "string",
          "name": "_title",
          "type": "string"
        },
        {
          "internalType": "uint256",
          "name": "_price",
          "type": "uint256"
        },
        {
          "internalType": "string",
          "name": "_contentCid",
          "type": "string"
        }
      ],
      "name": "createCourse",
      "outputs": [
        {
          "internalType": "uint256",
          "name": "courseId",
          "type": "uint256"
        }
      ],
      "stateMutability": "nonpayable",
      "type": "function"
    },
    {
      "inputs": [],
      "name": "getAllCourse",
      "outputs": [
        {
          "components": [
            {
              "internalType": "uint256",
              "name": "id",
              "type": "uint256"
            },
            {
              "internalType": "address",
              "name": "instructor",
              "type": "address"
            },
            {
              "internalType": "uint256",
              "name": "price",
              "type": "uint256"
            },
            {
              "internalType": "string",
              "name": "title",
              "type": "string"
            },
            {
              "internalType": "string",
              "name": "contentCid",
              "type": "string"
            }
          ],
          "internalType": "struct ElearningPlatform.Course[]",
          "name": "",
          "type": "tuple[]"
        }
      ],
      "stateMutability": "view",
      "type": "function"
    },
    {
      "inputs": [
        {
          "internalType": "uint256",
          "name": "courseId",
          "type": "uint256"
        }
      ],
      "name": "getCourseById",
      "outputs": [
        {
          "components": [
            {
              "internalType": "uint256",
              "name": "id",
              "type": "uint256"
            },
            {
              "internalType": "address",
              "name": "instructor",
              "type": "address"
            },
            {
              "internalType": "uint256",
              "name": "price",
              "type": "uint256"
            },
            {
              "internalType": "string",
              "name": "title",
              "type": "string"
            },
            {
              "internalType": "string",
              "name": "contentCid",
              "type": "string"
            }
          ],
          "internalType": "struct ElearningPlatform.Course",
          "name": "",
          "type": "tuple"
        }
      ],
      "stateMutability": "view",
      "type": "function"
    },
    {
      "inputs": [
        {
          "internalType": "uint256",
          "name": "_courseId",
          "type": "uint256"
        }
      ],
      "name": "getCourseContentCid",
      "outputs": [
        {
          "internalType": "string",
          "name": "",
          "type": "string"
        }
      ],
      "stateMutability": "view",
      "type": "function"
    },
    {
      "inputs": [
        {
          "internalType": "address",
          "name": "_student",
          "type": "address"
        },
        {
          "internalType": "uint256",
          "name": "_courseId",
          "type": "uint256"
        }
      ],
      "name": "getPurchasedCourseContentCid",
      "outputs": [
        {
          "internalType": "string",
          "name": "",
          "type": "string"
        }
      ],
      "stateMutability": "view",
      "type": "function"
    },
    {
      "inputs": [
        {
          "internalType": "address",
          "name": "_student",
          "type": "address"
        }
      ],
      "name": "getPurchasedCourses",
      "outputs": [
        {
          "internalType": "uint256[]",
          "name": "",
          "type": "uint256[]"
        }
      ],
      "stateMutability": "view",
      "type": "function"
    },
    {
      "inputs": [
        {
          "internalType": "address",
          "name": "_student",
          "type": "address"
        },
        {
          "internalType": "uint256",
          "name": "_courseId",
          "type": "uint256"
        }
      ],
      "name": "hasPurchasedCourse",
      "outputs": [
        {
          "internalType": "bool",
          "name": "",
          "type": "bool"
        }
      ],
      "stateMutability": "view",
      "type": "function"
    },
    {
      "inputs": [],
      "name": "nextCourseId",
      "outputs": [
        {
          "internalType": "uint256",
          "name": "",
          "type": "uint256"
        }
      ],
      "stateMutability": "view",
      "type": "function"
    },
    {
      "inputs": [
        {
          "internalType": "uint256",
          "name": "_courseId",
          "type": "uint256"
        }
      ],
      "name": "purchaseCourse",
      "outputs": [],
      "stateMutability": "payable",
      "type": "function"
    },
    {
      "inputs": [
        {
          "internalType": "address",
          "name": "",
          "type": "address"
        },
        {
          "internalType": "uint256",
          "name": "",
          "type": "uint256"
        }
      ],
      "name": "purchases",
      "outputs": [
        {
          "internalType": "bool",
          "name": "",
          "type": "bool"
        }
      ],
      "stateMutability": "view",
      "type": "function"
    },
    {
      "inputs": [
        {
          "internalType": "address",
          "name": "",
          "type": "address"
        },
        {
          "internalType": "uint256",
          "name": "",
          "type": "uint256"
        }
      ],
      "name": "studentCourseIndex",
      "outputs": [
        {
          "internalType": "uint256",
          "name": "",
          "type": "uint256"
        }
      ],
      "stateMutability": "view",
      "type": "function"
    },
    {
      "inputs": [
        {
          "internalType": "address",
          "name": "",
          "type": "address"
        },
        {
          "internalType": "uint256",
          "name": "",
          "type": "uint256"
        }
      ],
      "name": "studentCourses",
      "outputs": [
        {
          "internalType": "uint256",
          "name": "",
          "type": "uint256"
        }
      ],
      "stateMutability": "view",
      "type": "function"
    }
  ],
  "bytecode": "0x608060405260018055348015610013575f80fd5b50604051611aec380380611aec833981016040819052610032916100b0565b6001600160a01b03811661008c5760405162461bcd60e51b815260206004820152601360248201527f496e76616c6964204e4654206164647265737300000000000000000000000000604482015260640160405180910390fd5b5f80546001600160a01b0319166001600160a01b03929092169190911790556100dd565b5f602082840312156100c0575f80fd5b81516001600160a01b03811681146100d6575f80fd5b9392505050565b611a02806100ea5f395ff3fe6080604052600436106100e4575f3560e01c80637f9c45cb11610087578063ccfb517111610057578063ccfb5171146102cf578063cd131938146102ee578063ea5b210f14610303578063fd95cc511461032f575f80fd5b80637f9c45cb1461022b57806391aec72a1461024a57806396f979d2146102805780639d0475da146102b0575f80fd5b806311e8e6fc116100c257806311e8e6fc1461016a578063494e2371146101ae57806352d3f849146101cd5780637d83daf214610216575f80fd5b8063098761fa146100e85780630a5fa7f21461011d5780630f5fb0a014610149575b5f80fd5b3480156100f3575f80fd5b506101076101023660046114a3565b61034e565b60405161011491906114fd565b60405180910390f35b348015610128575f80fd5b5061013c610137366004611531565b610447565b604051610114919061154a565b348015610154575f80fd5b5061015d6104af565b60405161011491906115e9565b348015610175575f80fd5b506101a061018436600461164b565b600660209081525f928352604080842090915290825290205481565b604051908152602001610114565b3480156101b9575f80fd5b506101a06101c83660046114a3565b610856565b3480156101d8575f80fd5b506102066101e736600461164b565b600460209081525f928352604080842090915290825290205460ff1681565b6040519015158152602001610114565b348015610221575f80fd5b506101a060015481565b348015610236575f80fd5b5061020661024536600461164b565b610875565b348015610255575f80fd5b505f54610268906001600160a01b031681565b6040516001600160a01b039091168152602001610114565b34801561028b575f80fd5b5061029f61029a3660046114a3565b6108a2565b604051610114959493929190611673565b3480156102bb575f80fd5b506101a06102ca366004611702565b6109e7565b3480156102da575f80fd5b506101076102e936600461164b565b610caa565b6103016102fc3660046114a3565b610db5565b005b34801561030e575f80fd5b5061032261031d3660046114a3565b61121d565b6040516101149190611776565b34801561033a575f80fd5b506101a061034936600461164b565b61138e565b5f81815260026020526040812054606091036103a95760405162461bcd60e51b815260206004820152601560248201527410dbdd5c9cd948191bd95cc81b9bdd08195e1a5cdd605a1b60448201526064015b60405180910390fd5b5f82815260026020526040902060040180546103c490611788565b80601f01602080910402602001604051908101604052809291908181526020018280546103f090611788565b801561043b5780601f106104125761010080835404028352916020019161043b565b820191905f5260205f20905b81548152906001019060200180831161041e57829003601f168201915b50505050509050919050565b6001600160a01b0381165f9081526005602090815260409182902080548351818402810184019094528084526060939283018282801561043b57602002820191905f5260205f20905b8154815260200190600101908083116104905750505050509050919050565b6003546060905f8167ffffffffffffffff8111156104cf576104cf6117c0565b60405190808252806020026020018201604052801561050857816020015b6104f561146e565b8152602001906001900390816104ed5790505b506003549091501580159061054b575060025f60035f8154811061052e5761052e6117d4565b905f5260205f20015481526020019081526020015f205f01545f14155b156106885761059d6040518060400160405280601081526020016f02334b939ba1031b7bab939b2a4a21d160851b81525060035f8154811061058f5761058f6117d4565b905f5260205f2001546113b9565b6106886040518060400160405280601481526020017302334b939ba1031b7bab939b2903a34ba36329d160651b81525060025f60035f815481106105e3576105e36117d4565b905f5260205f20015481526020019081526020015f20600301805461060790611788565b80601f016020809104026020016040519081016040528092919081815260200182805461063390611788565b801561067e5780601f106106555761010080835404028352916020019161067e565b820191905f5260205f20905b81548152906001019060200180831161066157829003601f168201915b5050505050611402565b5f5b8281101561084f5760025f600383815481106106a8576106a86117d4565b905f5260205f20015481526020019081526020015f206040518060a00160405290815f8201548152602001600182015f9054906101000a90046001600160a01b03166001600160a01b03166001600160a01b031681526020016002820154815260200160038201805461071a90611788565b80601f016020809104026020016040519081016040528092919081815260200182805461074690611788565b80156107915780601f1061076857610100808354040283529160200191610791565b820191905f5260205f20905b81548152906001019060200180831161077457829003601f168201915b505050505081526020016004820180546107aa90611788565b80601f01602080910402602001604051908101604052809291908181526020018280546107d690611788565b80156108215780601f106107f857610100808354040283529160200191610821565b820191905f5260205f20905b81548152906001019060200180831161080457829003601f168201915b50505050508152505082828151811061083c5761083c6117d4565b602090810291909101015260010161068a565b5092915050565b60038181548110610865575f80fd5b5f91825260209091200154905081565b6001600160a01b0382165f90815260046020908152604080832084845290915290205460ff165b92915050565b600260208190525f9182526040909120805460018201549282015460038301805492946001600160a01b03169391926108da90611788565b80601f016020809104026020016040519081016040528092919081815260200182805461090690611788565b80156109515780601f1061092857610100808354040283529160200191610951565b820191905f5260205f20905b81548152906001019060200180831161093457829003601f168201915b50505050509080600401805461096690611788565b80601f016020809104026020016040519081016040528092919081815260200182805461099290611788565b80156109dd5780601f106109b4576101008083540402835291602001916109dd565b820191905f5260205f20905b8154815290600101906020018083116109c057829003601f168201915b5050505050905085565b5f848103610a2b5760405162461bcd60e51b8152602060048201526011602482015270151a5d1b19481a5cc81c995c5d5a5c9959607a1b60448201526064016103a0565b5f829003610a7b5760405162461bcd60e51b815260206004820152601760248201527f436f6e74656e742043494420697320726571756972656400000000000000000060448201526064016103a0565b60018054905f610a8a836117fc565b9190505590506040518060a00160405280828152602001336001600160a01b0316815260200185815260200187878080601f0160208091040260200160405190810160405280939291908181526020018383808284375f92019190915250505090825250604080516020601f8701819004810282018101909252858152918101919086908690819084018382808284375f9201829052509390945250508381526002602081815260409283902085518155908501516001820180546001600160a01b0319166001600160a01b03909216919091179055918401519082015560608301519091506003820190610b7f9082611860565b5060808201516004820190610b949082611860565b5050600380546001810182555f919091527fc2575a0e9e593c00f959f8c92f12db2869c3395a3b0502d05e2516446f71f85b018290555060408051808201909152600f81526e21b7bab939b29031b932b0ba32b21d60891b6020820152610bfb90826113b9565b610c58604051806040016040528060068152602001652a34ba36329d60d11b81525087878080601f0160208091040260200160405190810160405280939291908181526020018383808284375f9201919091525061140292505050565b336001600160a01b0316817ed0c2053e9c58e45c2d0ef78a34a697e1cc22adbce3131a81e81f40b0bdae938888888888604051610c99959493929190611948565b60405180910390a395945050505050565b6001600160a01b0382165f90815260046020908152604080832084845290915290205460609060ff16610d165760405162461bcd60e51b815260206004820152601460248201527310dbdd5c9cd9481b9bdd081c1d5c98da185cd95960621b60448201526064016103a0565b5f8281526002602052604090206004018054610d3190611788565b80601f0160208091040260200160405190810160405280929190818152602001828054610d5d90611788565b8015610da85780601f10610d7f57610100808354040283529160200191610da8565b820191905f5260205f20905b815481529060010190602001808311610d8b57829003601f168201915b5050505050905092915050565b5f818152600260208181526040808420815160a0810183528154815260018201546001600160a01b0316938101939093529283015490820152600382018054919291606084019190610e0690611788565b80601f0160208091040260200160405190810160405280929190818152602001828054610e3290611788565b8015610e7d5780601f10610e5457610100808354040283529160200191610e7d565b820191905f5260205f20905b815481529060010190602001808311610e6057829003601f168201915b50505050508152602001600482018054610e9690611788565b80601f0160208091040260200160405190810160405280929190818152602001828054610ec290611788565b8015610f0d5780601f10610ee457610100808354040283529160200191610f0d565b820191905f5260205f20905b815481529060010190602001808311610ef057829003601f168201915b5050505050815250509050805f01515f03610f625760405162461bcd60e51b815260206004820152601560248201527410dbdd5c9cd948191bd95cc81b9bdd08195e1a5cdd605a1b60448201526064016103a0565b335f90815260046020908152604080832085845290915290205460ff1615610fcc5760405162461bcd60e51b815260206004820152601860248201527f436f7572736520616c726561647920707572636861736564000000000000000060448201526064016103a0565b80604001513410156110175760405162461bcd60e51b8152602060048201526014602482015273125b9cdd59999a58da595b9d081c185e5b595b9d60621b60448201526064016103a0565b335f8181526004602090815260408083208684528252808320805460ff1916600190811790915593835260058083528184208054600685528386208987528552838620819055918452948101855593835281832090930185905583015183830151925191926001600160a01b03909116918381818185875af1925050503d805f81146110be576040519150601f19603f3d011682016040523d82523d5f602084013e6110c3565b606091505b50509050806111205760405162461bcd60e51b8152602060048201526024808201527f4661696c656420746f2073656e64207061796d656e7420746f20696e7374727560448201526331ba37b960e11b60648201526084016103a0565b81604001513411156111d05760408201515f90339061113f9034611974565b6040515f81818185875af1925050503d805f8114611178576040519150601f19603f3d011682016040523d82523d5f602084013e61117d565b606091505b50509050806111ce5760405162461bcd60e51b815260206004820152601f60248201527f4661696c656420746f20726566756e6420657863657373207061796d656e740060448201526064016103a0565b505b82336001600160a01b03167f4b71ef6d807a9a201a6f28d104a403722af74f85b8f2042a8d152bd2a78f5586846040015160405161121091815260200190565b60405180910390a3505050565b61122561146e565b5f82815260026020818152604092839020835160a0810185528154815260018201546001600160a01b031692810192909252918201549281019290925260038101805460608401919061127790611788565b80601f01602080910402602001604051908101604052809291908181526020018280546112a390611788565b80156112ee5780601f106112c5576101008083540402835291602001916112ee565b820191905f5260205f20905b8154815290600101906020018083116112d157829003601f168201915b5050505050815260200160048201805461130790611788565b80601f016020809104026020016040519081016040528092919081815260200182805461133390611788565b801561137e5780601f106113555761010080835404028352916020019161137e565b820191905f5260205f20905b81548152906001019060200180831161136157829003601f168201915b5050505050815250509050919050565b6005602052815f5260405f2081815481106113a7575f80fd5b905f5260205f20015f91509150505481565b6113fe82826040516024016113cf929190611987565b60408051601f198184030181529190526020810180516001600160e01b0316632d839cb360e21b179052611443565b5050565b6113fe82826040516024016114189291906119a8565b60408051601f198184030181529190526020810180516001600160e01b0316634b5c427760e01b1790525b61144c8161144f565b50565b5f6a636f6e736f6c652e6c6f6790505f80835160208501845afa505050565b6040518060a001604052805f81526020015f6001600160a01b031681526020015f815260200160608152602001606081525090565b5f602082840312156114b3575f80fd5b5035919050565b5f81518084525f5b818110156114de576020818501810151868301820152016114c2565b505f602082860101526020601f19601f83011685010191505092915050565b602081525f61150f60208301846114ba565b9392505050565b80356001600160a01b038116811461152c575f80fd5b919050565b5f60208284031215611541575f80fd5b61150f82611516565b602080825282518282018190525f9190848201906040850190845b8181101561158157835183529284019291840191600101611565565b50909695505050505050565b8051825260018060a01b036020820151166020830152604081015160408301525f606082015160a060608501526115c760a08501826114ba565b9050608083015184820360808601526115e082826114ba565b95945050505050565b5f60208083016020845280855180835260408601915060408160051b8701019250602087015f5b8281101561163e57603f1988860301845261162c85835161158d565b94509285019290850190600101611610565b5092979650505050505050565b5f806040838503121561165c575f80fd5b61166583611516565b946020939093013593505050565b85815260018060a01b038516602082015283604082015260a060608201525f61169f60a08301856114ba565b82810360808401526116b181856114ba565b98975050505050505050565b5f8083601f8401126116cd575f80fd5b50813567ffffffffffffffff8111156116e4575f80fd5b6020830191508360208285010111156116fb575f80fd5b9250929050565b5f805f805f60608688031215611716575f80fd5b853567ffffffffffffffff8082111561172d575f80fd5b61173989838a016116bd565b9097509550602088013594506040880135915080821115611758575f80fd5b50611765888289016116bd565b969995985093965092949392505050565b602081525f61150f602083018461158d565b600181811c9082168061179c57607f821691505b6020821081036117ba57634e487b7160e01b5f52602260045260245ffd5b50919050565b634e487b7160e01b5f52604160045260245ffd5b634e487b7160e01b5f52603260045260245ffd5b634e487b7160e01b5f52601160045260245ffd5b5f6001820161180d5761180d6117e8565b5060010190565b601f82111561185b57805f5260205f20601f840160051c810160208510156118395750805b601f840160051c820191505b81811015611858575f8155600101611845565b50505b505050565b815167ffffffffffffffff81111561187a5761187a6117c0565b61188e816118888454611788565b84611814565b602080601f8311600181146118c1575f84156118aa5750858301515b5f19600386901b1c1916600185901b178555611918565b5f85815260208120601f198616915b828110156118ef578886015182559484019460019091019084016118d0565b508582101561190c57878501515f19600388901b60f8161c191681555b505060018460011b0185555b505050505050565b81835281816020850137505f828201602090810191909152601f909101601f19169091010190565b606081525f61195b606083018789611920565b85602084015282810360408401526116b1818587611920565b8181038181111561089c5761089c6117e8565b604081525f61199960408301856114ba565b90508260208301529392505050565b604081525f6119ba60408301856114ba565b82810360208401526115e081856114ba56fea26469706673582212209d7da204317258955d50b87714c5b1d0bd12d1bed808c4918b40be20677ff17964736f6c63430008180033",
  "linkReferences": {},
  "deployedLinkReferences": {},
  "immutableReferences": {},
  "inputSourceName": "project/contracts/ElearningPlatform.sol",
  "buildInfoId": "solc-0_8_24-95e404ace67ca25b602867123407a694a28a5c01"
}